S00E00004465766963652E73726563C6
S11300000C9434000C9451000C9451000C94510045
S11300100C9451000C9451000C9451000C94510018
S11300200C9451000C9451000C9451000C94510008
S11300300C9451000C9451000C9451000C945100F8
S11300400C944E080C9451000C9451000C945100E3
S11300500C9451000C9451000C9451000C945100D8
S11300600C9451000C94510011241FBECFEFD8E022
S1130070DEBFCDBF11E0A0E0B1E0E0E6F7E102C0F1
S113008005900D92A033B107D9F721E0A0E3B1E0C8
S113009001C01D92A034B207E1F70E94FF050C9441
S11300A0AE0B0C9400001F93CF93DF9300D000D0CD
S11300B0CDB7DEB7182F19821A821B821C8221E069
S11300C030E0AE014C5F5F4F6AE08CE00E94DD08D7
S11300D090E0009709F0ACC02FEF81EE94E021503E
S11300E080409040E1F700C000008FE08C8321E065
S11300F030E0AE014C5F5F4F6AE08CE00E94DD08A7
S113010090E0009709F094C02FEF81EE94E0215025
S113011080409040E1F700C0000023E030E0AE01F1
S11301204F5F5F4F60E18CE00E940D0990E0009703
S113013009F07EC0698170E060587F4F072E000C83
S1130140880B990B0E94600A20E030E040E85BE3F2
S11301500E94EC0A20E030E040E85FE30E9480095E
S11301606093340170933501809336019093370185
S11301706A8170E060587F4F072E000C880B990B42
S11301800E94600A20E030E040E85BE30E94EC0A51
S113019020E030E040E85FE30E948009609338018A
S11301A07093390180933A0190933B016B8170E025
S11301B060587F4F072E000C880B990B0E94600A31
S11301C020E030E040E85BE30E94EC0A20E030E00D
S11301D040E85FE30E94800960933C0170933D0115
S11301E080933E0190933F011C8221E030E0AE01F8
S11301F04C5F5F4F6AE08CE00E94DD0890E000975E
S1130200B9F42FEF81EE94E0215080409040E1F763
S113021000C0000010611C8321E030E0AE014C5F9F
S11302205F4F6AE08CE00E94DD0890E0009711F0D7
S11302309F6F0BC02FEF81EE94E0215080409040DF
S1130240E1F700C0000080E090E00F900F900F9065
S11302500F90DF91CF911F9108952F923F924F926B
S11302605F926F927F928F929F92AF92BF92CF9242
S1130270DF92EF92FF920F931F93CF93DF93CDB74B
S1130280DEB7EC970FB6F894DEBF0FBECDBF9EA7C6
S11302908DA778AB6FA71CE0FE013196DF01212FFB
S11302A01D922A95E9F7198E1A8E1B8E1C8E21E059
S11302B030E0AE01445E5F4F68E388E60E94DD08EB
S11302C0F82E8111DAC21C8E21E030E0AE01445ECA
S11302D05F4F63E288E60E94DD08F82E8111CDC2EB
S11302E01C8E21E030E0AE01445E5F4F6BE688E691
S11302F00E94DD08F82E8111C0C21C8E21E030E07E
S1130300AE01445E5F4F6AE688E60E94DD08F82E7F
S11303108111B3C21C8F21E030E0AE01445E5F4F17
S11303206AE688E60E94DD08F82E8111A6C28FE5F0
S11303309AEE0197F1F700C0000081E08C8F21E074
S113034030E0AE01445E5F4F6AE188E60E94DD085A
S1130350F82E811192C21C8E21E030E0AE01445E81
S11303605F4F69E188E60E94DD08F82E811185C29D
S11303701C8E21E030E0AE01445E5F4F6BE188E605
S11303800E94DD08F82E811178C21C8E21E030E035
S1130390AE01445E5F4F6CE188E60E94DD08F82EF2
S11303A081116BC280E48C8F21E030E0AE01445EA9
S11303B05F4F6AE688E60E94DD08F82E81115DC26F
S11303C088E78C8F21E030E0AE01445E5F4F63E24A
S11303D088E60E94DD08F82E81114FC29FEFA3EF3B
S11303E0B1E09150A040B040E1F700C000001C8E85
S11303F021E030E0AE01445E5F4F63E288E60E9494
S1130400DD08F82E811139C28E01035F1F4F22E0EF
S113041030E0A80162E788E60E940D09F82E8111F8
S11304202CC28D859E859827892798276CE070E0DB
S11304300E94590B7B011D8E1E8E1F8E18A2812CCB
S1130440912C5401412C512C320119A21AA21BA245
S11304501CA21DA21EA21FA218A619A61AA61BA69C
S11304601CA6212C312C2E143F0409F479C02CE055
S113047030E0A80164E788E60E940D098D859E8519
S1130480982789279827092E000CAA0BBB0B480E26
S1130490591E6A1E7B1E8F8598899827892798275D
S11304A0092E000CAA0BBB0B880E991EAA1EBB1E9C
S11304B089899A89982789279827092E000CAA0BDD
S11304C0BB0B2D8D3E8D4F8D58A1280F391F4A1F10
S11304D05B1F2D8F3E8F4F8F58A38B899C89982744
S11304E089279827092E000CAA0BBB0B29A53AA52E
S11304F04BA55CA5280F391F4A1F5B1F29A73AA7E4
S11305004BA75CA78D899E89982789279827092E50
S1130510000CAA0BBB0B2DA13EA14FA158A5280F7F
S1130520391F4A1F5B1F2DA33EA34FA358A78F89D2
S1130530988D982789279827092E000CAA0BBB0BA6
S113054029A13AA14BA15CA1280F391F4A1F5B1FA7
S113055029A33AA34BA35CA33FEF231A330A83CF07
S11305606101E12CF12CC301B201A70196010E94A3
S11305708F0B29AB3AAB4BAB5CABC501B401A70104
S113058096010E948F0B2DAB3EAB4FAB58AF6D8DD8
S11305907E8D8F8D98A1A70196010E948F0B29AFA4
S11305A03AAF4BAF5CAF69A57AA58BA59CA5A70113
S11305B096010E948F0B49015A016DA17EA18FA162
S11305C098A5A70196010E948F0B29013A0169A100
S11305D07AA18BA19CA1A70196010E948F0B2D8F5C
S11305E03E8F4F8F58A394E0C92ED12CE12CF12CCF
S11305F0C501B401A70196010E948F0B5095409547
S1130600309521953F4F4F4F5F4F3D872E87C30154
S1130610B201A70196010E948F0B50954095309529
S113062021953F4F4F4F5F4F3F87288B6D8D7E8DB8
S11306308F8D98A1A70196010E948F0B509540952C
S1130640309521953F4F4F4F5F4F398B2A8B1C8E2E
S113065021E030E0AE01445E5F4F6AE688E60E9426
S1130660DD08F82E811109C18E01035F1F4F26E0BA
S113067030E0A80163E188E60E94DD08C501B40109
S11306800E94600A20E030E043E053E40E94EC0959
S1130690AFA5B8A96D937D938D939C931397C301D4
S11306A0B2010E94600A20E030E043E053E40E947B
S11306B0EC09EFA5F8A964837583868397836D8D10
S11306C07E8D8F8D98A10E94600A20E030E043E087
S11306D053E40E94EC09AFA5B8A918966D937D93D5
S11306E08D939C931B9726E030E0A80167E788E68A
S11306F00E940D09AD84BE84BA24AB24BA249501AA
S1130700BB0C440B550B2D8F3E8F4F8F58A3298361
S11307103A834B835C838F84988898248924982413
S1130720092C000CAA08BB088D829E82AF82B88671
S113073089899A899827892798279C01990F440BBE
S1130740550B29A33AA34BA35CA329873A874B876C
S11307505C87FE013196DE01599681E04191519109
S11307606191719140FD8C931196E017F107B1F7F7
S113077088E0482E512C612C712C69A97AA98BA987
S11307809CA9A30192010E948F0B8D8D9E8DAF8D2C
S1130790B8A1821B930BA40BB50B8D8F9E8FAF8FCB
S11307A0B8A36DA97EA98FA998ADA30192010E9457
S11307B08F0B821A930AA40AB50A69AD7AAD8BAD80
S11307C09CADA30192010E948F0B89A19AA1ABA1B8
S11307D0BCA1821B930BA40BB50BEE8DED87298D69
S11307E0FD8D2F2B2E879F862A8D822A888A998BAE
S11307F02B8D822B8A8B26E030E0AE01435F5F4F66
S113080067E788E60E940D0969A97AA98BA99CA9C2
S11308100E94600A20E030E040E858E30E94EC0ABD
S1130820ADA5BEA56D937D938D939C9313976DA9F0
S11308307EA98FA998AD0E94600A20E030E040E8CC
S113084058E30E94EC0AEDA5FEA5648375838683B4
S1130850978369AD7AAD8BAD9CAD0E94600A20E0B0
S113086030E040E858E30E94EC0AADA5BEA5189616
S11308706D937D938D939C931B978F2DEC960FB660
S1130880F894DEBF0FBECDBFDF91CF911F910F91C2
S1130890FF90EF90DF90CF90BF90AF909F908F909C
S11308A07F906F905F904F903F902F900895EF92BC
S11308B0FF920F931F93CF93DF931F92CDB7DEB7B1
S11308C08C017B0180E8898321E030E0AE014F5F39
S11308D05F4F6BE688E60E94DD0890E0009709F020
S11308E0EAC02FEF81EE94E0215080409040E1F780
S11308F000C00000198221E030E0AE014F5F5F4F7D
S11309006BE688E60E94DD0890E0009711F09160A4
S1130910D2C02FEF81EE94E0215080409040E1F767
S113092000C0000081E0898321E030E0AE014F5F28
S11309305F4F6BE688E60E94DD0890E0009711F0B7
S11309409260B9C02FEF81EE94E021508040904036
S1130950E1F700C00000B701C8010E942D0119820F
S113096021E030E0AE014F5F5F4F6AE188E60E940C
S1130970DD0890E0009711F093609DC084E08983C6
S113098021E030E0AE014F5F5F4F69E188E60E94ED
S1130990DD0890E0009711F094608DC021E030E014
S11309A0AE014F5F5F4F6BE188E60E940D0990E056
S11309B0009711F095607FC08981847E8860898367
S11309C021E030E0AE014F5F5F4F6BE188E60E94AB
S11309D0DD0890E0009711F096606DC021E030E0F2
S11309E0AE014F5F5F4F6CE188E60E940D0990E015
S11309F0009711F097605FC08981877E8860898342
S1130A0021E030E0AE014F5F5F4F6CE188E60E9469
S1130A10DD0890E0009711F098604DC021E030E0CF
S1130A20AE014F5F5F4F6DE188E60E940D0990E0D3
S1130A30009711F099603FC08981807F898321E00C
S1130A4030E0AE014F5F5F4F6DE188E60E94DD0844
S1130A5090E0009711F09A602EC0198221E030E0F6
S1130A60AE014F5F5F4F6AE688E60E94DD0890E0C2
S1130A70009711F09B601FC02FEF81EE94E021508E
S1130A8080409040E1F700C0000082E0898321E0CB
S1130A9030E0AE014F5F5F4F67E388E60E94DD08F8
S1130AA02FEF81EE94E0215080409040E1F700C0A8
S1130AB0000080E090E00F90DF91CF911F910F91A3
S1130AC0FF90EF900895CF93DF93EC0121E030E0A5
S1130AD0AC016AE388E60E940D0981110FC0888188
S1130AE080FF0EC026E030E0AE016BE388E60E9492
S1130AF00D0991E0811105C090E003C091E001C0AF
S1130B0092E0892FDF91CF910895CF93DF93EC0189
S1130B1021E030E0AC016AE388E60E940D0981110E
S1130B200FC0888180FF0EC026E030E0AE0163E490
S1130B3088E60E940D0991E0811105C090E003C090
S1130B4091E001C092E0892FDF91CF910895CF9376
S1130B50DF93EC0121E030E0AC0162E08CE00E9424
S1130B600D09882311F081E021C0888180FF1BC01A
S1130B7027E030E0AE0163E08CE00E940D098111B2
S1130B80F2CF9E81892F887093FD0FC0FE019E01D4
S1130B902A5F3F4F90814181408391833296E217CF
S1130BA0F307C1F703C082E001C083E0DF91CF9176
S1130BB00895CF93DF93EC010E946305882311F01D
S1130BC0806111C0CE0106960E948505882311F02C
S1130BD0806209C0CE010C960E94A705882311F0FB
S1130BE0806401C080E0DF91CF91089585B5836072
S1130BF085BDEEE6F0E080818160808308954F92A8
S1130C005F926F927F928F929F92AF92BF92CF9298
S1130C10DF92EF92FF920F931F93CF93DF93CDB7A1
S1130C20DEB7C156D1090FB6F894DEBF0FBECDBFF3
S1130C308E010B5A1F4FD8011C92FE01F09683E1DE
S1130C40DF011D928A95E9F7BF978FE2DF011D92BC
S1130C508A95E9F785E089A78EA780E895E20E9446
S1130C6052090E948D080E94F605789421E030E034
S1130C70A80165E788E60E940D09F80180818137A3
S1130C8009F0F2C164E271E088E191E00E94570446
S1130C90892B09F0E9C121E030E0A80160E08CE093
S1130CA00E940D09D8018C91883409F0DDC140E01F
S1130CB051E06CE071E086E00E945300892B09F05A
S1130CC0D3C1CE01C0960E94D90540E0842F90E0A4
S1130CD0880F991FEFE4F0E0EC0FFD1FE80FF91FF8
S1130CE0A0E3B0E0AC0FBD1FA80FB91F2C9130E0FA
S1130CF0322F2227A1E3B0E0AC0FBD1FA80FB91F0C
S1130D005C91252B31832083E9E4F0E0EC0FFD1F97
S1130D10E80FF91FA6E3B0E0AC0FBD1FA80FB91F81
S1130D202C9130E0322F2227A7E3B0E0AC0FBD1F97
S1130D30A80FB91F5C91252B31832083E3E4F0E0F5
S1130D40EC0FFD1FE80FF91FACE3B0E0AC0FBD1FC3
S1130D50A80FB91F2C9130E0322F2227ADE3B0E069
S1130D60AC0FBD1FA80FB91F8C91B901682BCB0123
S1130D70918380834F5F433009F0A8CFD8014C930F
S1130D8061966EAD7FAD6197072E000C880B990BB1
S1130D900E94600A2EEF3FEF4FEF58E30E94EC0AE7
S1130DA0209118013091190140911A0150911B01B1
S1130DB00E947F092B013C0163966EAD7FAD639762
S1130DC0072E000C880B990B0E94600A2EEF3FEF50
S1130DD04FEF58E30E94EC0A20911C0130911D0151
S1130DE040911E0150911F010E947F096D837E83F3
S1130DF08F83988765966EAD7FAD6597072E000C3F
S1130E00880B990B0E94600A2EEF3FEF4FEF58E3D7
S1130E100E94EC0A2091200130912101409122018D
S1130E20509123010E947F0969877A878B879C8769
S1130E302B966EAD7FAD2B97072E000C880B990B6C
S1130E400E94600A20E030E04AE75CE30E94EC0A7A
S1130E504B015C012D966EAD7FAD2D97072E000CD6
S1130E60880B990B0E94600A20E030E04AE75CE3BB
S1130E700E94EC0A6B017C012F966EAD7FAD2F971B
S1130E80072E000C880B990B0E94600A20E030E0CA
S1130E904AE75CE30E94EC0A6A966CAF7DAF8EAFC2
S1130EA09FAF6A9725966EAD7FAD2597072E000CF0
S1130EB0880B990B0E94600A20E030EE4FEB5FE351
S1130EC00E94EC0A20910C0130910D0140910E0119
S1130ED050910F010E947F0920910001309101017E
S1130EE040910201509103010E94EC0A6E966CAF8E
S1130EF07DAF8EAF9FAF6E9727966EAD7FAD279770
S1130F00072E000C880B990B0E94600A20E030EE3B
S1130F104FEB5FE30E94EC0A209110013091110124
S1130F2040911201509113010E947F092091040104
S1130F303091050140910601509107010E94EC0A8D
S1130F40A2966CAF7DAF8EAF9FAFA29729966EAD80
S1130F507FAD2997072E000C880B990B0E94600A1D
S1130F6020E030EE4FEB5FE30E94EC0A2091140185
S1130F703091150140911601509117010E947F098B
S1130F80209108013091090140910A0150910B010F
S1130F900E94EC0A69A37AA38BA39CA3A3019201E8
S1130FA060E070E0CB010E947F0969837A838B83C0
S1130FB09C8323E33AEF4EE85CE3C501B4010E944D
S1130FC0EC0A6D877E878F87988BA701960160E076
S1130FD070E0CB010E947F0923E33AEF4EE85CE323
S1130FE00E94EC0A698B7A8B8B8B9C8B6A962CAD56
S1130FF03DAD4EAD5FAD6A9760E070E0CB010E94FD
S11310007F0923E33AEF4EE85CE30E94EC0A6D8B20
S11310107E8B8F8B988F6E962CAD3DAD4EAD5FADB4
S11310206E9760E070E0CB010E947F096D8F7E8F28
S11310308F8F98A3A2966CAD7DAD8EAD9FADA29718
S1131040698F7A8F8B8F9C8FCE0101967C016E0104
S11310509FE2C90ED11CD7018D917D010E947809B0
S1131060EC14FD04C1F72DCE80E090E0CF59DF4FA2
S11310700FB6F894DEBF0FBECDBFDF91CF911F91A5
S11310800F91FF90EF90DF90CF90BF90AF909F9023
S11310908F907F906F905F904F9008951F920F9262
S11310A00FB60F9211240F931F932F933F935F93C7
S11310B06F937F938F939F93AF93BF93009132016C
S11310C01091330120E030E08091300190913101A2
S11310D00F5F1F4F2F4F3F4F489668EE73E00E94FB
S11310E0590B060F171F211D311D10933301009357
S11310F032019093310180933001BF91AF919F9160
S11311008F917F916F915F913F912F911F910F91DB
S11311100F900FBE0F901F90189517B880E388B9F1
S11311208CE08093B80008951092BC0094EA9093E8
S1131130BC009091BC0097FFFCCF9091B900987FC0
S1131140983089F48093BB0084E88093BC0080913C
S1131150BC0087FFFCCF8091B900887F883129F0DB
S1131160803421F402C0892F089580E0089580938B
S1131170BB0084E88093BC008091BC0087FFFCCF57
S11311808091B900887F883211F0803509F480E0BD
S1131190089584EC8093BC008091BC0087FFFCCF51
S11311A08091BB00089584E88093BC008091BC00CA
S11311B087FFFCCF8091BB000895EF92FF920F93BD
S11311C01F93CF93DF93C62F7A018901880F0E9462
S11311D09408882311F0816019C08C2F0E94B708ED
S11311E0811104C0E7010E0D1F1D02C082600EC0F4
S11311F0C017D10739F089910E94B7088823C1F339
S1131200836004C084E98093BC0080E0DF91CF91C7
S11312101F910F91FF90EF900895CF92DF92EF927C
S1131220FF920F931F93CF93DF93D62F7A018901F7
S1131230C82FCC0F8C2F0E949408882311F0816052
S113124028C08D2F0E94B708882311F0826021C026
S113125081E08C0F0E949408811104C06701E801A9
S1131260219702C0836015C0C6018E199F098C178F
S11312709D0730F40E94C908F60181936F01F4CFF1
S1131280CE0DDF1D0E94D308888384E98093BC00BF
S113129080E0DF91CF911F910F91FF90EF90DF904D
S11312A0CF9008959C01E0ECF0E08081826080831F
S11312B01092C500032E000C440B550B60E874E833
S11312C08EE190E00E946D0B21502093C400E2EC6B
S11312D0F0E0808186608083E1ECF0E080818061D1
S11312E08083808188608083808180688083089582
S11312F09091C00095FFFCCF8093C600089550588C
S1131300BB27AA270E9497090C94B20A0E94A40A38
S113131038F00E94AB0A20F039F49F3F19F426F408
S11313200C94A10A0EF4E095E7FB0C949B0AE92FB8
S11313300E94C30A58F3BA17620773078407950714
S113134020F079F4A6F50C94E50A0EF4E0950B2E42
S1131350BA2FA02D0B01B90190010C01CA01A00103
S11313601124FF27591B99F0593F50F4503E68F15E
S11313701A16F040A22F232F342F4427585FF3CF9F
S1131380469537952795A795F0405395C9F77EF470
S11313901F16BA0B620B730B840BBAF09150A1F0B9
S11313A0FF0FBB1F661F771F881FC2F70EC0BA0F3F
S11313B0621F731F841F48F4879577956795B795C7
S11313C0F7959E3F08F0B0CF9395880F08F09927C2
S11313D0EE0F9795879508950E94000A0C94B20A1F
S11313E00E94AB0A58F00E94A40A40F029F45F3F1F
S11313F029F00C949B0A51110C94E60A0C94A10A4E
S11314000E94C30A68F39923B1F3552391F3951B02
S1131410550BBB27AA2762177307840738F09F5F11
S11314205F4F220F331F441FAA1FA9F335D00E2E7E
S11314303AF0E0E832D091505040E695001CCAF7EB
S11314402BD0FE2F29D0660F771F881FBB1F2617AE
S113145037074807AB07B0E809F0BB0B802DBF0185
S1131460FF2793585F4F3AF09E3F510578F00C9454
S11314709B0A0C94E60A5F3FE4F3983ED4F3869506
S113148077956795B795F7959F5FC9F7880F911D75
S11314909695879597F90895E1E0660F771F881F61
S11314A0BB1F621773078407BA0720F0621B730B14
S11314B0840BBA0BEE1F88F7E0950895E89409C0F1
S11314C097FB3EF490958095709561957F4F8F4F73
S11314D09F4F9923A9F0F92F96E9BB279395F69589
S11314E0879577956795B795F111F8CFFAF4BB0F07
S11314F011F460FF1BC06F5F7F4F8F4F9F4F16C06B
S1131500882311F096E911C0772321F09EE8872FF4
S1131510762F05C0662371F096E8862F70E060E0B0
S11315202AF09A95660F771F881FDAF7880F969529
S1131530879597F9089597F99F6780E870E060E0D0
S113154008959FEF80EC089500240A941616170658
S113155018060906089500240A94121613061406A0
S113156005060895092E0394000C11F4882352F003
S1131570BB0F40F4BF2B11F460FF04C06F5F7F4FBB
S11315808F4F9F4F089557FD9058440F551F59F0A2
S11315905F3F71F04795880F97FB991F61F09F3F5C
S11315A079F087950895121613061406551FF2CF85
S11315B04695F1DF08C0161617061806991FF1CFD5
S11315C086957105610508940895E894BB276627FC
S11315D07727CB0197F908950E94FF0A0C94B20A69
S11315E00E94A40A38F00E94AB0A20F0952311F05F
S11315F00C949B0A0C94A10A11240C94E60A0E94F0
S1131600C30A70F3959FC1F3950F50E0551F629F75
S1131610F001729FBB27F00DB11D639FAA27F00D47
S1131620B11DAA1F649F6627B00DA11D661F829F6E
S11316302227B00DA11D621F739FB00DA11D621F53
S1131640839FA00D611D221F749F3327A00D611D70
S1131650231F849F600D211D822F762F6A2F112452
S11316609F5750409AF0F1F088234AF0EE0FFF1F85
S1131670BB1F661F771F881F91505040A9F79E3FDC
S1131680510580F00C949B0A0C94E60A5F3FE4F346
S1131690983ED4F3869577956795B795F795E79532
S11316A09F5FC1F7FE2B880F911D9695879597F93B
S11316B00895AA1BBB1B51E107C0AA1FBB1FA61795
S11316C0B70710F0A61BB70B881F991F5A95A9F7E7
S11316D080959095BC01CD010895A1E21A2EAA1B14
S11316E0BB1BFD010DC0AA1FBB1FEE1FFF1FA217CE
S11316F0B307E407F50720F0A21BB30BE40BF50BCB
S1131700661F771F881F991F1A9469F76095709553
S1131710809590959B01AC01BD01CF010895052EE4
S113172097FB1EF400940E94A60B57FD07D00E945D
S11317306D0B07FC03D04EF40C94A60B509540950A
S1131740309521953F4F4F4F5F4F08959095809569
S1131750709561957F4F8F4F9F4F0895F894FFCFF9
S1131760AE47813F0AD7833F8FC2753F7B148E42B9
S113177029DCF4429A9913C2E0F3433BD31316BC19
S1131780C6F91B3C8FC2753F3D0A57BE8FC2F53D5B
S9030000FC
